{
  "contractName": "EcommerceStore",
  "abi": [
    {
      "constant": true,
      "inputs": [],
      "name": "productindex",
      "outputs": [
        {
          "internalType": "uint256",
          "name": "",
          "type": "uint256"
        }
      ],
      "payable": false,
      "stateMutability": "view",
      "type": "function"
    },
    {
      "constant": false,
      "inputs": [],
      "name": "EcommerceProductStore",
      "outputs": [],
      "payable": false,
      "stateMutability": "nonpayable",
      "type": "function"
    },
    {
      "constant": false,
      "inputs": [
        {
          "internalType": "string",
          "name": "_name",
          "type": "string"
        },
        {
          "internalType": "string",
          "name": "_category",
          "type": "string"
        },
        {
          "internalType": "string",
          "name": "_imageLink",
          "type": "string"
        },
        {
          "internalType": "string",
          "name": "_desLink",
          "type": "string"
        },
        {
          "internalType": "uint256",
          "name": "_actionStartTime",
          "type": "uint256"
        },
        {
          "internalType": "uint256",
          "name": "_auctionEndTime",
          "type": "uint256"
        },
        {
          "internalType": "uint256",
          "name": "_startPrice",
          "type": "uint256"
        },
        {
          "internalType": "uint256",
          "name": "_ProductCondition",
          "type": "uint256"
        }
      ],
      "name": "addProductToStore",
      "outputs": [],
      "payable": false,
      "stateMutability": "nonpayable",
      "type": "function"
    },
    {
      "constant": true,
      "inputs": [
        {
          "internalType": "uint256",
          "name": "_productId",
          "type": "uint256"
        }
      ],
      "name": "getProduct",
      "outputs": [
        {
          "internalType": "uint256",
          "name": "",
          "type": "uint256"
        },
        {
          "internalType": "string",
          "name": "",
          "type": "string"
        },
        {
          "internalType": "string",
          "name": "",
          "type": "string"
        },
        {
          "internalType": "string",
          "name": "",
          "type": "string"
        },
        {
          "internalType": "string",
          "name": "",
          "type": "string"
        },
        {
          "internalType": "uint256",
          "name": "",
          "type": "uint256"
        },
        {
          "internalType": "uint256",
          "name": "",
          "type": "uint256"
        },
        {
          "internalType": "uint256",
          "name": "",
          "type": "uint256"
        },
        {
          "internalType": "enum EcommerceStore.ProductStatus",
          "name": "",
          "type": "uint8"
        },
        {
          "internalType": "enum EcommerceStore.ProductCondition",
          "name": "",
          "type": "uint8"
        }
      ],
      "payable": false,
      "stateMutability": "view",
      "type": "function"
    },
    {
      "constant": false,
      "inputs": [
        {
          "internalType": "uint256",
          "name": "_productId",
          "type": "uint256"
        },
        {
          "internalType": "bytes32",
          "name": "_bid",
          "type": "bytes32"
        }
      ],
      "name": "bid",
      "outputs": [
        {
          "internalType": "bool",
          "name": "",
          "type": "bool"
        }
      ],
      "payable": true,
      "stateMutability": "payable",
      "type": "function"
    },
    {
      "constant": false,
      "inputs": [
        {
          "internalType": "uint256",
          "name": "_productId",
          "type": "uint256"
        },
        {
          "internalType": "string",
          "name": "_amount",
          "type": "string"
        },
        {
          "internalType": "string",
          "name": "_secret",
          "type": "string"
        }
      ],
      "name": "revealBid",
      "outputs": [],
      "payable": true,
      "stateMutability": "payable",
      "type": "function"
    },
    {
      "constant": true,
      "inputs": [
        {
          "internalType": "uint256",
          "name": "_productid",
          "type": "uint256"
        }
      ],
      "name": "highestBidderInfo",
      "outputs": [
        {
          "internalType": "address",
          "name": "",
          "type": "address"
        },
        {
          "internalType": "address",
          "name": "",
          "type": "address"
        },
        {
          "internalType": "address",
          "name": "",
          "type": "address"
        }
      ],
      "payable": false,
      "stateMutability": "view",
      "type": "function"
    },
    {
      "constant": true,
      "inputs": [
        {
          "internalType": "uint256",
          "name": "_productid",
          "type": "uint256"
        }
      ],
      "name": "totalBids",
      "outputs": [
        {
          "internalType": "uint256",
          "name": "",
          "type": "uint256"
        }
      ],
      "payable": false,
      "stateMutability": "view",
      "type": "function"
    }
  ],
  "bytecode": "0x608060405234801561001057600080fd5b506127b6806100206000396000f3fe60806040526004361061007b5760003560e01c8063ce818ea91161004e578063ce818ea9146105da578063d193e8da146106bb578063ea1591bb146106e6578063f85f196e146107365761007b565b806316a7f0261461008057806328e3d19014610097578063a508b955146100e6578063b9db15b41461039c575b600080fd5b34801561008c57600080fd5b50610095610892565b005b3480156100a357600080fd5b506100d0600480360360208110156100ba57600080fd5b810190808035906020019092919050505061089b565b6040518082815260200191505060405180910390f35b3480156100f257600080fd5b5061039a600480360361010081101561010a57600080fd5b810190808035906020019064010000000081111561012757600080fd5b82018360208201111561013957600080fd5b8035906020019184600183028401116401000000008311171561015b57600080fd5b91908080601f016020809104026020016040519081016040528093929190818152602001838380828437600081840152601f19601f820116905080830192505050505050509192919290803590602001906401000000008111156101be57600080fd5b8201836020820111156101d057600080fd5b803590602001918460018302840111640100000000831117156101f257600080fd5b91908080601f016020809104026020016040519081016040528093929190818152602001838380828437600081840152601f19601f8201169050808301925050505050505091929192908035906020019064010000000081111561025557600080fd5b82018360208201111561026757600080fd5b8035906020019184600183028401116401000000008311171561028957600080fd5b91908080601f016020809104026020016040519081016040528093929190818152602001838380828437600081840152601f19601f820116905080830192505050505050509192919290803590602001906401000000008111156102ec57600080fd5b8201836020820111156102fe57600080fd5b8035906020019184600183028401116401000000008311171561032057600080fd5b91908080601f016020809104026020016040519081016040528093929190818152602001838380828437600081840152601f19601f82011690508083019250505050505050919291929080359060200190929190803590602001909291908035906020019092919080359060200190929190505050610d5a565b005b3480156103a857600080fd5b506103d5600480360360208110156103bf57600080fd5b81019080803590602001909291905050506110ce565b604051808b8152602001806020018060200180602001806020018a815260200189815260200188815260200187600281111561040d57fe5b60ff16815260200186600181111561042157fe5b60ff16815260200185810385528e818151815260200191508051906020019080838360005b83811015610461578082015181840152602081019050610446565b50505050905090810190601f16801561048e5780820380516001836020036101000a031916815260200191505b5085810384528d818151815260200191508051906020019080838360005b838110156104c75780820151818401526020810190506104ac565b50505050905090810190601f1680156104f45780820380516001836020036101000a031916815260200191505b5085810383528c818151815260200191508051906020019080838360005b8381101561052d578082015181840152602081019050610512565b50505050905090810190601f16801561055a5780820380516001836020036101000a031916815260200191505b5085810382528b818151815260200191508051906020019080838360005b83811015610593578082015181840152602081019050610578565b50505050905090810190601f1680156105c05780820380516001836020036101000a031916815260200191505b509e50505050505050505050505050505060405180910390f35b3480156105e657600080fd5b50610613600480360360208110156105fd57600080fd5b81019080803590602001909291905050506115ef565b604051808473ffffffffffffffffffffffffffffffffffffffff1673ffffffffffffffffffffffffffffffffffffffff1681526020018373ffffffffffffffffffffffffffffffffffffffff1673ffffffffffffffffffffffffffffffffffffffff1681526020018273ffffffffffffffffffffffffffffffffffffffff1673ffffffffffffffffffffffffffffffffffffffff168152602001935050505060405180910390f35b3480156106c757600080fd5b506106d0611acc565b6040518082815260200191505060405180910390f35b61071c600480360360408110156106fc57600080fd5b810190808035906020019092919080359060200190929190505050611ad2565b604051808215151515815260200191505060405180910390f35b6108906004803603606081101561074c57600080fd5b81019080803590602001909291908035906020019064010000000081111561077357600080fd5b82018360208201111561078557600080fd5b803590602001918460018302840111640100000000831117156107a757600080fd5b91908080601f016020809104026020016040519081016040528093929190818152602001838380828437600081840152601f19601f8201169050808301925050505050505091929192908035906020019064010000000081111561080a57600080fd5b82018360208201111561081c57600080fd5b8035906020019184600183028401116401000000008311171561083e57600080fd5b91908080601f016020809104026020016040519081016040528093929190818152602001838380828437600081840152601f19601f820116905080830192505050505050509192919290505050611d62565b005b60008081905550565b60006108a56125d5565b600160006002600086815260200190815260200160002060009054906101000a900473ffffffffffffffffffffffffffffffffffffffff1673ffffffffffffffffffffffffffffffffffffffff1673ffffffffffffffffffffffffffffffffffffffff1681526020019081526020016000206000848152602001908152602001600020604051806101c001604052908160008201548152602001600182018054600181600116156101000203166002900480601f0160208091040260200160405190810160405280929190818152602001828054600181600116156101000203166002900480156109d75780601f106109ac576101008083540402835291602001916109d7565b820191906000526020600020905b8154815290600101906020018083116109ba57829003601f168201915b50505050508152602001600282018054600181600116156101000203166002900480601f016020809104026020016040519081016040528092919081815260200182805460018160011615610100020316600290048015610a795780601f10610a4e57610100808354040283529160200191610a79565b820191906000526020600020905b815481529060010190602001808311610a5c57829003601f168201915b50505050508152602001600382018054600181600116156101000203166002900480601f016020809104026020016040519081016040528092919081815260200182805460018160011615610100020316600290048015610b1b5780601f10610af057610100808354040283529160200191610b1b565b820191906000526020600020905b815481529060010190602001808311610afe57829003601f168201915b50505050508152602001600482018054600181600116156101000203166002900480601f016020809104026020016040519081016040528092919081815260200182805460018160011615610100020316600290048015610bbd5780601f10610b9257610100808354040283529160200191610bbd565b820191906000526020600020905b815481529060010190602001808311610ba057829003601f168201915b505050505081526020016005820154815260200160068201548152602001600782015481526020016008820160009054906101000a900473ffffffffffffffffffffffffffffffffffffffff1673ffffffffffffffffffffffffffffffffffffffff1673ffffffffffffffffffffffffffffffffffffffff1681526020016009820160009054906101000a900473ffffffffffffffffffffffffffffffffffffffff1673ffffffffffffffffffffffffffffffffffffffff1673ffffffffffffffffffffffffffffffffffffffff168152602001600a820160009054906101000a900473ffffffffffffffffffffffffffffffffffffffff1673ffffffffffffffffffffffffffffffffffffffff1673ffffffffffffffffffffffffffffffffffffffff168152602001600b8201548152602001600c820160009054906101000a900460ff166002811115610d0e57fe5b6002811115610d1957fe5b8152602001600c820160019054906101000a900460ff166001811115610d3b57fe5b6001811115610d4657fe5b815250509050806101600151915050919050565b828410610d6657600080fd5b60016000808282540192505081905550610d7e6125d5565b604051806101c0016040528060005481526020018a8152602001898152602001888152602001878152602001868152602001858152602001848152602001600073ffffffffffffffffffffffffffffffffffffffff168152602001600073ffffffffffffffffffffffffffffffffffffffff168152602001600073ffffffffffffffffffffffffffffffffffffffff1681526020016000815260200160006002811115610e2757fe5b8152602001836001811115610e3857fe5b6001811115610e4357fe5b815250905080600160003373ffffffffffffffffffffffffffffffffffffffff1673ffffffffffffffffffffffffffffffffffffffff168152602001908152602001600020600080548152602001908152602001600020600082015181600001556020820151816001019080519060200190610ec092919061269c565b506040820151816002019080519060200190610edd92919061269c565b506060820151816003019080519060200190610efa92919061269c565b506080820151816004019080519060200190610f1792919061269c565b5060a0820151816005015560c0820151816006015560e082015181600701556101008201518160080160006101000a81548173ffffffffffffffffffffffffffffffffffffffff021916908373ffffffffffffffffffffffffffffffffffffffff1602179055506101208201518160090160006101000a81548173ffffffffffffffffffffffffffffffffffffffff021916908373ffffffffffffffffffffffffffffffffffffffff16021790555061014082015181600a0160006101000a81548173ffffffffffffffffffffffffffffffffffffffff021916908373ffffffffffffffffffffffffffffffffffffffff16021790555061016082015181600b015561018082015181600c0160006101000a81548160ff0219169083600281111561103e57fe5b02179055506101a082015181600c0160016101000a81548160ff0219169083600181111561106857fe5b021790555090505033600260008054815260200190815260200160002060006101000a81548173ffffffffffffffffffffffffffffffffffffffff021916908373ffffffffffffffffffffffffffffffffffffffff160217905550505050505050505050565b600060608060608060008060008060006110e66125d5565b60016000600260008f815260200190815260200160002060009054906101000a900473ffffffffffffffffffffffffffffffffffffffff1673ffffffffffffffffffffffffffffffffffffffff1673ffffffffffffffffffffffffffffffffffffffff16815260200190815260200160002060008d8152602001908152602001600020604051806101c001604052908160008201548152602001600182018054600181600116156101000203166002900480601f0160208091040260200160405190810160405280929190818152602001828054600181600116156101000203166002900480156112185780601f106111ed57610100808354040283529160200191611218565b820191906000526020600020905b8154815290600101906020018083116111fb57829003601f168201915b50505050508152602001600282018054600181600116156101000203166002900480601f0160208091040260200160405190810160405280929190818152602001828054600181600116156101000203166002900480156112ba5780601f1061128f576101008083540402835291602001916112ba565b820191906000526020600020905b81548152906001019060200180831161129d57829003601f168201915b50505050508152602001600382018054600181600116156101000203166002900480601f01602080910402602001604051908101604052809291908181526020018280546001816001161561010002031660029004801561135c5780601f106113315761010080835404028352916020019161135c565b820191906000526020600020905b81548152906001019060200180831161133f57829003601f168201915b50505050508152602001600482018054600181600116156101000203166002900480601f0160208091040260200160405190810160405280929190818152602001828054600181600116156101000203166002900480156113fe5780601f106113d3576101008083540402835291602001916113fe565b820191906000526020600020905b8154815290600101906020018083116113e157829003601f168201915b505050505081526020016005820154815260200160068201548152602001600782015481526020016008820160009054906101000a900473ffffffffffffffffffffffffffffffffffffffff1673ffffffffffffffffffffffffffffffffffffffff1673ffffffffffffffffffffffffffffffffffffffff1681526020016009820160009054906101000a900473ffffffffffffffffffffffffffffffffffffffff1673ffffffffffffffffffffffffffffffffffffffff1673ffffffffffffffffffffffffffffffffffffffff168152602001600a820160009054906101000a900473ffffffffffffffffffffffffffffffffffffffff1673ffffffffffffffffffffffffffffffffffffffff1673ffffffffffffffffffffffffffffffffffffffff168152602001600b8201548152602001600c820160009054906101000a900460ff16600281111561154f57fe5b600281111561155a57fe5b8152602001600c820160019054906101000a900460ff16600181111561157c57fe5b600181111561158757fe5b815250509050806000015181602001518260400151836060015184608001518560a001518660c001518760e00151886101800151896101a001518898508797508696508595509a509a509a509a509a509a509a509a509a509a50509193959799509193959799565b60008060006115fc6125d5565b600160006002600088815260200190815260200160002060009054906101000a900473ffffffffffffffffffffffffffffffffffffffff1673ffffffffffffffffffffffffffffffffffffffff1673ffffffffffffffffffffffffffffffffffffffff1681526020019081526020016000206000868152602001908152602001600020604051806101c001604052908160008201548152602001600182018054600181600116156101000203166002900480601f01602080910402602001604051908101604052809291908181526020018280546001816001161561010002031660029004801561172e5780601f106117035761010080835404028352916020019161172e565b820191906000526020600020905b81548152906001019060200180831161171157829003601f168201915b50505050508152602001600282018054600181600116156101000203166002900480601f0160208091040260200160405190810160405280929190818152602001828054600181600116156101000203166002900480156117d05780601f106117a5576101008083540402835291602001916117d0565b820191906000526020600020905b8154815290600101906020018083116117b357829003601f168201915b50505050508152602001600382018054600181600116156101000203166002900480601f0160208091040260200160405190810160405280929190818152602001828054600181600116156101000203166002900480156118725780601f1061184757610100808354040283529160200191611872565b820191906000526020600020905b81548152906001019060200180831161185557829003601f168201915b50505050508152602001600482018054600181600116156101000203166002900480601f0160208091040260200160405190810160405280929190818152602001828054600181600116156101000203166002900480156119145780601f106118e957610100808354040283529160200191611914565b820191906000526020600020905b8154815290600101906020018083116118f757829003601f168201915b505050505081526020016005820154815260200160068201548152602001600782015481526020016008820160009054906101000a900473ffffffffffffffffffffffffffffffffffffffff1673ffffffffffffffffffffffffffffffffffffffff1673ffffffffffffffffffffffffffffffffffffffff1681526020016009820160009054906101000a900473ffffffffffffffffffffffffffffffffffffffff1673ffffffffffffffffffffffffffffffffffffffff1673ffffffffffffffffffffffffffffffffffffffff168152602001600a820160009054906101000a900473ffffffffffffffffffffffffffffffffffffffff1673ffffffffffffffffffffffffffffffffffffffff1673ffffffffffffffffffffffffffffffffffffffff168152602001600b8201548152602001600c820160009054906101000a900460ff166002811115611a6557fe5b6002811115611a7057fe5b8152602001600c820160019054906101000a900460ff166001811115611a9257fe5b6001811115611a9d57fe5b815250509050806101000151816101200151826101400151829250819150809050935093509350509193909250565b60005481565b600080600160006002600087815260200190815260200160002060009054906101000a900473ffffffffffffffffffffffffffffffffffffffff1673ffffffffffffffffffffffffffffffffffffffff1673ffffffffffffffffffffffffffffffffffffffff168152602001908152602001600020600085815260200190815260200160002090508060050154421015611b6b57600080fd5b8060060154421015611b7c57600080fd5b80600701543411611b8c57600080fd5b600073ffffffffffffffffffffffffffffffffffffffff1681600d0160003373ffffffffffffffffffffffffffffffffffffffff1673ffffffffffffffffffffffffffffffffffffffff168152602001908152602001600020600085815260200190815260200160002060000160009054906101000a900473ffffffffffffffffffffffffffffffffffffffff1673ffffffffffffffffffffffffffffffffffffffff1614611c3a57600080fd5b60405180608001604052803373ffffffffffffffffffffffffffffffffffffffff1681526020018581526020013481526020016000151581525081600d0160003373ffffffffffffffffffffffffffffffffffffffff1673ffffffffffffffffffffffffffffffffffffffff168152602001908152602001600020600085815260200190815260200160002060008201518160000160006101000a81548173ffffffffffffffffffffffffffffffffffffffff021916908373ffffffffffffffffffffffffffffffffffffffff160217905550602082015181600101556040820151816002015560608201518160030160006101000a81548160ff021916908315150217905550905050600181600b0160008282540192505081905550600191505092915050565b6000600160006002600087815260200190815260200160002060009054906101000a900473ffffffffffffffffffffffffffffffffffffffff1673ffffffffffffffffffffffffffffffffffffffff1673ffffffffffffffffffffffffffffffffffffffff168152602001908152602001600020600085815260200190815260200160002090508060060154421015611dfa57600080fd5b6000600284846040516020018083805190602001908083835b60208310611e365780518252602082019150602081019050602083039250611e13565b6001836020036101000a03801982511681845116808217855250505050505090500182805190602001908083835b60208310611e875780518252602082019150602081019050602083039250611e64565b6001836020036101000a038019825116818451168082178552505050505050905001925050506040516020818303038152906040526040518082805190602001908083835b60208310611eef5780518252602082019150602081019050602083039250611ecc565b6001836020036101000a038019825116818451168082178552505050505050905001915050602060405180830381855afa158015611f31573d6000803e3d6000fd5b5050506040513d6020811015611f4657600080fd5b81019080805190602001909291905050509050611f6161271c565b82600d0160003373ffffffffffffffffffffffffffffffffffffffff1673ffffffffffffffffffffffffffffffffffffffff16815260200190815260200160002060008381526020019081526020016000206040518060800160405290816000820160009054906101000a900473ffffffffffffffffffffffffffffffffffffffff1673ffffffffffffffffffffffffffffffffffffffff1673ffffffffffffffffffffffffffffffffffffffff16815260200160018201548152602001600282015481526020016003820160009054906101000a900460ff1615151515815250509050600073ffffffffffffffffffffffffffffffffffffffff16816000015173ffffffffffffffffffffffffffffffffffffffff161161208257600080fd5b60001515816060015115151461209757600080fd5b6000806120a38761255c565b905080836040015110156120bd5782604001519150612493565b600073ffffffffffffffffffffffffffffffffffffffff168560080160009054906101000a900473ffffffffffffffffffffffffffffffffffffffff1673ffffffffffffffffffffffffffffffffffffffff1614156121f157338560080160006101000a81548173ffffffffffffffffffffffffffffffffffffffff021916908373ffffffffffffffffffffffffffffffffffffffff160217905550808560090160006101000a81548173ffffffffffffffffffffffffffffffffffffffff021916908373ffffffffffffffffffffffffffffffffffffffff160217905550846007015485600a0160006101000a81548173ffffffffffffffffffffffffffffffffffffffff021916908373ffffffffffffffffffffffffffffffffffffffff160217905550808360400151039150612492565b8460090160009054906101000a900473ffffffffffffffffffffffffffffffffffffffff1673ffffffffffffffffffffffffffffffffffffffff168173ffffffffffffffffffffffffffffffffffffffff1611156123e9578460090160009054906101000a900473ffffffffffffffffffffffffffffffffffffffff1685600a0160006101000a81548173ffffffffffffffffffffffffffffffffffffffff021916908373ffffffffffffffffffffffffffffffffffffffff1602179055508460080160009054906101000a900473ffffffffffffffffffffffffffffffffffffffff1673ffffffffffffffffffffffffffffffffffffffff166108fc8660090160009054906101000a900473ffffffffffffffffffffffffffffffffffffffff1673ffffffffffffffffffffffffffffffffffffffff169081150290604051600060405180830381858888f19350505050158015612354573d6000803e3d6000fd5b50338560080160006101000a81548173ffffffffffffffffffffffffffffffffffffffff021916908373ffffffffffffffffffffffffffffffffffffffff160217905550808560090160006101000a81548173ffffffffffffffffffffffffffffffffffffffff021916908373ffffffffffffffffffffffffffffffffffffffff160217905550808360400151039150612491565b84600a0160009054906101000a900473ffffffffffffffffffffffffffffffffffffffff1673ffffffffffffffffffffffffffffffffffffffff168173ffffffffffffffffffffffffffffffffffffffff16111561248c578085600a0160006101000a81548173ffffffffffffffffffffffffffffffffffffffff021916908373ffffffffffffffffffffffffffffffffffffffff160217905550809150612490565b8091505b5b5b5b600185600d0160003373ffffffffffffffffffffffffffffffffffffffff1673ffffffffffffffffffffffffffffffffffffffff168152602001908152602001600020600086815260200190815260200160002060030160006101000a81548160ff0219169083151502179055506000821115612552573373ffffffffffffffffffffffffffffffffffffffff166108fc839081150290604051600060405180830381858888f19350505050158015612550573d6000803e3d6000fd5b505b5050505050505050565b6000606082905060008060009050600091505b82518210156125ca57600083838151811061258657fe5b602001015160f81c60f81b60f81c60ff169050603081101580156125ab575060398111155b156125bc5760308103600a83020191505b50818060010192505061256f565b809350505050919050565b604051806101c001604052806000815260200160608152602001606081526020016060815260200160608152602001600081526020016000815260200160008152602001600073ffffffffffffffffffffffffffffffffffffffff168152602001600073ffffffffffffffffffffffffffffffffffffffff168152602001600073ffffffffffffffffffffffffffffffffffffffff168152602001600081526020016000600281111561268457fe5b81526020016000600181111561269657fe5b81525090565b828054600181600116156101000203166002900490600052602060002090601f016020900481019282601f106126dd57805160ff191683800117855561270b565b8280016001018555821561270b579182015b8281111561270a5782518255916020019190600101906126ef565b5b509050612718919061275c565b5090565b6040518060800160405280600073ffffffffffffffffffffffffffffffffffffffff16815260200160008152602001600081526020016000151581525090565b61277e91905b8082111561277a576000816000905550600101612762565b5090565b9056fea265627a7a723158200f63cba0bf8978bf2be2cde8d76e181238995891ab651025389f1a67cb9dcadb64736f6c63430005100032",
  "source": "pragma solidity ^0.5.16;\r\ncontract EcommerceStore {\r\n  enum ProductStatus { Open, Sold, Unsold }\r\n  enum ProductCondition { New,Used }\r\n  uint public productindex;\r\n  mapping (address => mapping(uint => Product)) stores;\r\n  mapping(uint => address) productIdInStore;\r\n  struct Product {\r\n    uint id;\r\n    string name;\r\n    string category;\r\n    string imageLink;\r\n    string desLink;\r\n    uint auctionStartTime;\r\n    uint auctionEndTime;\r\n    uint startPrice;\r\n    address payable highestBidder;\r\n    address payable highestBid;\r\n    address payable secondHighestBid;\r\n    uint totalBids;\r\n    ProductStatus status;\r\n    ProductCondition condition;\r\n    mapping ( address => mapping (bytes32 => Bid)) bids;\r\n    }\r\n\r\n    struct Bid {\r\n    address bidder;\r\n    uint productId;\r\n    uint value;\r\n    bool revealed;\r\n    }\r\n\r\n    function EcommerceProductStore() public {\r\n    productindex = 0;\r\n    }\r\n\r\n    function addProductToStore(string memory _name,string memory _category,string memory _imageLink,string memory _desLink,uint _actionStartTime,uint _auctionEndTime,uint _startPrice,uint _ProductCondition) public {\r\n    require (_actionStartTime < _auctionEndTime);\r\n    productindex+=1;\r\n    Product memory product = Product(productindex,_name,_category,_imageLink,_desLink,_actionStartTime,_auctionEndTime,_startPrice,address(0),address(0),address(0),0,ProductStatus.Open,ProductCondition(_ProductCondition));\r\n    stores[msg.sender][productindex] = product;\r\n    productIdInStore[productindex] = msg.sender;\r\n    }\r\n\r\n    function getProduct(uint _productId) view public returns (uint,string memory,string memory,string memory,string memory,uint,uint,uint,ProductStatus,ProductCondition) {\r\n    Product memory product = stores[productIdInStore[_productId]][_productId];\r\n    return (product.id,product.name,product.category,product.imageLink,product.desLink,product.auctionStartTime,product.auctionEndTime,product.startPrice,product.status,product.condition);\r\n    }\r\n\r\n    function bid(uint _productId,bytes32 _bid) payable public returns (bool) {\r\n    Product storage product=stores[productIdInStore[_productId]][_productId];\r\n    require (uint(now) >= product.auctionStartTime);\r\n    require (uint(now) >= product.auctionEndTime);\r\n    require (uint(msg.value) > product.startPrice);\r\n    require (product.bids[msg.sender][_bid].bidder == address(0));\r\n    product.bids[msg.sender][_bid] = Bid(msg.sender,_productId,uint(msg.value),false);\r\n    product.totalBids+=1;\r\n    return true;\r\n    }\r\n\r\n\r\n\r\n    function revealBid(uint _productId,string memory _amount,string memory _secret) payable public {\r\n    Product storage product=stores[productIdInStore[_productId]][_productId];\r\n    require (uint(now) >= product.auctionEndTime);\r\n    bytes32 sealedBid = sha256(abi.encodePacked(_amount,_secret));\r\n    Bid memory bidInfo = product.bids[msg.sender][sealedBid];\r\n    require (bidInfo.bidder > address(0));\r\n    require (bidInfo.revealed == false);\r\n    uint refund;\r\n    uint amount= stringToUint(_amount);\r\n    if(bidInfo.value < amount) {\r\n    refund = bidInfo.value;\r\n    }\r\n    else\r\n    {\r\n    if(address(product.highestBidder)==address(0)){\r\n    product.highestBidder=msg.sender;\r\n    product.highestBid=address(amount);\r\n    product.secondHighestBid = address(product.startPrice);\r\n    refund = bidInfo.value - amount;\r\n    }\r\n    else{\r\n    if(address(amount) > address(product.highestBid)){\r\n    product.secondHighestBid = product.highestBid;\r\n    product.highestBidder.transfer(uint(product.highestBid));\r\n    product.highestBidder=msg.sender;\r\n    product.highestBid=address(amount);\r\n    refund=bidInfo.value - amount;\r\n    }\r\n    else if(address(amount) > address(product.secondHighestBid)){\r\n    product.secondHighestBid=address(amount);\r\n    refund=amount;\r\n    }\r\n    else{\r\n    refund=amount;\r\n    }\r\n   }\r\n  }\r\n  product.bids[msg.sender][sealedBid].revealed = true;\r\n  if(refund > 0){\r\n  msg.sender.transfer(refund);\r\n  }\r\n  }\r\n\r\n\r\n    function highestBidderInfo(uint _productid) view public returns (address,address,address) {\r\n    Product memory product = stores[productIdInStore[_productid]][_productid];\r\n    return (product.highestBidder,product.highestBid,product.secondHighestBid);\r\n    } \r\n    function totalBids(uint _productid) view public returns (uint) {\r\n    Product memory product=stores[productIdInStore[_productid]][_productid];\r\n    return product.totalBids;\r\n    }\r\n    function stringToUint(string memory s) internal pure returns (uint) {\r\n    bytes memory b = bytes(s);\r\n        uint i;\r\n        uint result = 0;\r\n        for (i = 0; i < b.length; i++) {\r\n            uint c = uint(uint8(b[i]));\r\n            if (c >= 48 && c <= 57) {\r\n                result = result * 10 + (c - 48);\r\n    }\r\n   }\r\nreturn result;\r\n}\r\n}",
  "sourcePath": "C:/Users/Abeg/Desktop/ebay_dapp/contracts/EcommerceProduct.sol",
  "compiler": {
    "name": "solc",
    "version": "0.5.16+commit.9c3226ce.Emscripten.clang"
  },
  "schemaVersion": "3.3.4",
  "updatedAt": "2021-03-13T10:00:24.988Z",
  "networkType": "ethereum",
  "devdoc": {
    "methods": {}
  },
  "userdoc": {
    "methods": {}
  }
}